{
  "_format": "hh-sol-artifact-1",
  "contractName": "Coinflip",
  "sourceName": "contracts/Coinflip.sol",
  "abi": [
    {
      "inputs": [
        {
          "internalType": "uint64",
          "name": "subscriptionId",
          "type": "uint64"
        },
        {
          "internalType": "address",
          "name": "coordinator",
          "type": "address"
        }
      ],
      "stateMutability": "nonpayable",
      "type": "constructor"
    },
    {
      "inputs": [
        {
          "internalType": "address",
          "name": "have",
          "type": "address"
        },
        {
          "internalType": "address",
          "name": "want",
          "type": "address"
        }
      ],
      "name": "OnlyCoordinatorCanFulfill",
      "type": "error"
    },
    {
      "anonymous": false,
      "inputs": [
        {
          "indexed": true,
          "internalType": "address",
          "name": "from",
          "type": "address"
        },
        {
          "indexed": true,
          "internalType": "address",
          "name": "to",
          "type": "address"
        }
      ],
      "name": "OwnershipTransferRequested",
      "type": "event"
    },
    {
      "anonymous": false,
      "inputs": [
        {
          "indexed": true,
          "internalType": "address",
          "name": "from",
          "type": "address"
        },
        {
          "indexed": true,
          "internalType": "address",
          "name": "to",
          "type": "address"
        }
      ],
      "name": "OwnershipTransferred",
      "type": "event"
    },
    {
      "anonymous": false,
      "inputs": [
        {
          "indexed": false,
          "internalType": "uint256",
          "name": "requestId",
          "type": "uint256"
        },
        {
          "indexed": false,
          "internalType": "uint256[]",
          "name": "randomWords",
          "type": "uint256[]"
        }
      ],
      "name": "RequestFulfilled",
      "type": "event"
    },
    {
      "anonymous": false,
      "inputs": [
        {
          "indexed": false,
          "internalType": "uint256",
          "name": "requestId",
          "type": "uint256"
        },
        {
          "indexed": false,
          "internalType": "uint32",
          "name": "numWords",
          "type": "uint32"
        }
      ],
      "name": "RequestSent",
      "type": "event"
    },
    {
      "inputs": [],
      "name": "acceptOwnership",
      "outputs": [],
      "stateMutability": "nonpayable",
      "type": "function"
    },
    {
      "inputs": [
        {
          "internalType": "uint256",
          "name": "",
          "type": "uint256"
        }
      ],
      "name": "bets",
      "outputs": [
        {
          "internalType": "uint256",
          "name": "requestId",
          "type": "uint256"
        },
        {
          "internalType": "address",
          "name": "player",
          "type": "address"
        },
        {
          "internalType": "uint256",
          "name": "stake",
          "type": "uint256"
        },
        {
          "internalType": "enum Coinflip.CoinDecision",
          "name": "prediction",
          "type": "uint8"
        },
        {
          "internalType": "enum Coinflip.CoinDecision",
          "name": "outcome",
          "type": "uint8"
        },
        {
          "internalType": "uint256",
          "name": "payout",
          "type": "uint256"
        }
      ],
      "stateMutability": "view",
      "type": "function"
    },
    {
      "inputs": [
        {
          "internalType": "address",
          "name": "",
          "type": "address"
        }
      ],
      "name": "debts",
      "outputs": [
        {
          "internalType": "uint256",
          "name": "",
          "type": "uint256"
        }
      ],
      "stateMutability": "view",
      "type": "function"
    },
    {
      "inputs": [
        {
          "internalType": "enum Coinflip.CoinDecision",
          "name": "_bet",
          "type": "uint8"
        }
      ],
      "name": "flip",
      "outputs": [
        {
          "internalType": "uint256",
          "name": "requestId",
          "type": "uint256"
        }
      ],
      "stateMutability": "payable",
      "type": "function"
    },
    {
      "inputs": [
        {
          "internalType": "uint256",
          "name": "_requestId",
          "type": "uint256"
        }
      ],
      "name": "getRequestStatus",
      "outputs": [
        {
          "internalType": "bool",
          "name": "fulfilled",
          "type": "bool"
        },
        {
          "internalType": "uint256[]",
          "name": "randomWords",
          "type": "uint256[]"
        }
      ],
      "stateMutability": "view",
      "type": "function"
    },
    {
      "inputs": [
        {
          "internalType": "address",
          "name": "",
          "type": "address"
        }
      ],
      "name": "hasPlayerBet",
      "outputs": [
        {
          "internalType": "bool",
          "name": "",
          "type": "bool"
        }
      ],
      "stateMutability": "view",
      "type": "function"
    },
    {
      "inputs": [],
      "name": "lastRequestId",
      "outputs": [
        {
          "internalType": "uint256",
          "name": "",
          "type": "uint256"
        }
      ],
      "stateMutability": "view",
      "type": "function"
    },
    {
      "inputs": [],
      "name": "owner",
      "outputs": [
        {
          "internalType": "address",
          "name": "",
          "type": "address"
        }
      ],
      "stateMutability": "view",
      "type": "function"
    },
    {
      "inputs": [
        {
          "internalType": "uint256",
          "name": "requestId",
          "type": "uint256"
        },
        {
          "internalType": "uint256[]",
          "name": "randomWords",
          "type": "uint256[]"
        }
      ],
      "name": "rawFulfillRandomWords",
      "outputs": [],
      "stateMutability": "nonpayable",
      "type": "function"
    },
    {
      "inputs": [
        {
          "internalType": "uint256",
          "name": "",
          "type": "uint256"
        }
      ],
      "name": "requestIds",
      "outputs": [
        {
          "internalType": "uint256",
          "name": "",
          "type": "uint256"
        }
      ],
      "stateMutability": "view",
      "type": "function"
    },
    {
      "inputs": [],
      "name": "requestRandomWords",
      "outputs": [
        {
          "internalType": "uint256",
          "name": "requestId",
          "type": "uint256"
        }
      ],
      "stateMutability": "nonpayable",
      "type": "function"
    },
    {
      "inputs": [
        {
          "internalType": "uint256",
          "name": "",
          "type": "uint256"
        }
      ],
      "name": "s_requests",
      "outputs": [
        {
          "internalType": "bool",
          "name": "fulfilled",
          "type": "bool"
        },
        {
          "internalType": "bool",
          "name": "exists",
          "type": "bool"
        }
      ],
      "stateMutability": "view",
      "type": "function"
    },
    {
      "inputs": [],
      "name": "s_subscriptionId",
      "outputs": [
        {
          "internalType": "uint64",
          "name": "",
          "type": "uint64"
        }
      ],
      "stateMutability": "view",
      "type": "function"
    },
    {
      "inputs": [
        {
          "internalType": "address",
          "name": "to",
          "type": "address"
        }
      ],
      "name": "transferOwnership",
      "outputs": [],
      "stateMutability": "nonpayable",
      "type": "function"
    },
    {
      "inputs": [],
      "name": "withdraw",
      "outputs": [],
      "stateMutability": "nonpayable",
      "type": "function"
    }
  ],
  "bytecode": "0x60a06040527f474e34a077df58807dbe9c96d3c009b23b3c6d0cce433e59bbf5b34f823bc56c60001b600755622625a0600860006101000a81548163ffffffff021916908363ffffffff1602179055506003600860046101000a81548161ffff021916908361ffff1602179055506002600860066101000a81548163ffffffff021916908363ffffffff1602179055503480156200009c57600080fd5b506040516200266b3803806200266b8339818101604052810190620000c291906200048f565b81813080806000848073ffffffffffffffffffffffffffffffffffffffff1660808173ffffffffffffffffffffffffffffffffffffffff168152505050600073ffffffffffffffffffffffffffffffffffffffff168273ffffffffffffffffffffffffffffffffffffffff160362000171576040517f08c379a0000000000000000000000000000000000000000000000000000000008152600401620001689062000537565b60405180910390fd5b816000806101000a81548173ffffffffffffffffffffffffffffffffffffffff021916908373ffffffffffffffffffffffffffffffffffffffff160217905550600073ffffffffffffffffffffffffffffffffffffffff168173ffffffffffffffffffffffffffffffffffffffff1614620001f857620001f781620002b160201b60201c565b5b50505081600360006101000a81548173ffffffffffffffffffffffffffffffffffffffff021916908373ffffffffffffffffffffffffffffffffffffffff16021790555081600660086101000a81548173ffffffffffffffffffffffffffffffffffffffff021916908373ffffffffffffffffffffffffffffffffffffffff16021790555082600660006101000a81548167ffffffffffffffff021916908367ffffffffffffffff1602179055505050505050620005cb565b3373ffffffffffffffffffffffffffffffffffffffff168173ffffffffffffffffffffffffffffffffffffffff160362000322576040517f08c379a00000000000000000000000000000000000000000000000000000000081526004016200031990620005a9565b60405180910390fd5b80600160006101000a81548173ffffffffffffffffffffffffffffffffffffffff021916908373ffffffffffffffffffffffffffffffffffffffff1602179055508073ffffffffffffffffffffffffffffffffffffffff1660008054906101000a900473ffffffffffffffffffffffffffffffffffffffff1673ffffffffffffffffffffffffffffffffffffffff167fed8889f560326eb138920d842192f0eb3dd22b4f139c87a2c57538e05bae127860405160405180910390a350565b600080fd5b600067ffffffffffffffff82169050919050565b6200040481620003e5565b81146200041057600080fd5b50565b6000815190506200042481620003f9565b92915050565b600073ffffffffffffffffffffffffffffffffffffffff82169050919050565b600062000457826200042a565b9050919050565b62000469816200044a565b81146200047557600080fd5b50565b60008151905062000489816200045e565b92915050565b60008060408385031215620004a957620004a8620003e0565b5b6000620004b98582860162000413565b9250506020620004cc8582860162000478565b9150509250929050565b600082825260208201905092915050565b7f43616e6e6f7420736574206f776e657220746f207a65726f0000000000000000600082015250565b60006200051f601883620004d6565b91506200052c82620004e7565b602082019050919050565b60006020820190508181036000830152620005528162000510565b9050919050565b7f43616e6e6f74207472616e7366657220746f2073656c66000000000000000000600082015250565b600062000591601783620004d6565b91506200059e8262000559565b602082019050919050565b60006020820190508181036000830152620005c48162000582565b9050919050565b60805161207d620005ee600039600081816103c00152610414015261207d6000f3fe6080604052600436106100e85760003560e01c80638ac000211161008a578063d8a4676f11610059578063d8a4676f14610301578063e0c862891461033f578063f2fde38b1461036a578063fc2a88c314610393576100e8565b80638ac00021146102305780638da5cb5b1461025b578063a168fa8914610286578063b2d46a80146102c4576100e8565b80633ccfd60b116100c65780633ccfd60b14610195578063638c0637146101ac57806379ba5097146101dc5780638796ba8c146101f3576100e8565b80631fe543e3146100ed57806322af00fa146101165780632ecd4e7d14610158575b600080fd5b3480156100f957600080fd5b50610114600480360381019061010f919061164a565b6103be565b005b34801561012257600080fd5b5061013d600480360381019061013891906116a6565b61047e565b60405161014f9695949392919061179a565b60405180910390f35b34801561016457600080fd5b5061017f600480360381019061017a9190611827565b6104f4565b60405161018c9190611854565b60405180910390f35b3480156101a157600080fd5b506101aa61050c565b005b6101c660048036038101906101c19190611894565b610615565b6040516101d39190611854565b60405180910390f35b3480156101e857600080fd5b506101f1610965565b005b3480156101ff57600080fd5b5061021a600480360381019061021591906116a6565b610afa565b6040516102279190611854565b60405180910390f35b34801561023c57600080fd5b50610245610b1e565b60405161025291906118e4565b60405180910390f35b34801561026757600080fd5b50610270610b38565b60405161027d91906118ff565b60405180910390f35b34801561029257600080fd5b506102ad60048036038101906102a891906116a6565b610b61565b6040516102bb929190611935565b60405180910390f35b3480156102d057600080fd5b506102eb60048036038101906102e69190611827565b610b9f565b6040516102f8919061195e565b60405180910390f35b34801561030d57600080fd5b50610328600480360381019061032391906116a6565b610bbf565b604051610336929190611a37565b60405180910390f35b34801561034b57600080fd5b50610354610cea565b6040516103619190611854565b60405180910390f35b34801561037657600080fd5b50610391600480360381019061038c9190611827565b610f43565b005b34801561039f57600080fd5b506103a8610f57565b6040516103b59190611854565b60405180910390f35b7f000000000000000000000000000000000000000000000000000000000000000073ffffffffffffffffffffffffffffffffffffffff163373ffffffffffffffffffffffffffffffffffffffff161461047057337f00000000000000000000000000000000000000000000000000000000000000006040517f1cf993f4000000000000000000000000000000000000000000000000000000008152600401610467929190611a67565b60405180910390fd5b61047a8282610f5d565b5050565b600a6020528060005260406000206000915090508060000154908060010160009054906101000a900473ffffffffffffffffffffffffffffffffffffffff16908060020154908060030160009054906101000a900460ff16908060030160019054906101000a900460ff16908060040154905086565b600b6020528060005260406000206000915090505481565b47600b60003373ffffffffffffffffffffffffffffffffffffffff1673ffffffffffffffffffffffffffffffffffffffff168152602001908152602001600020541061058d576040517f08c379a000000000000000000000000000000000000000000000000000000000815260040161058490611b13565b60405180910390fd5b3373ffffffffffffffffffffffffffffffffffffffff166108fc600b60003373ffffffffffffffffffffffffffffffffffffffff1673ffffffffffffffffffffffffffffffffffffffff168152602001908152602001600020549081150290604051600060405180830381858888f19350505050158015610612573d6000803e3d6000fd5b50565b600080600281111561062a57610629611723565b5b82600281111561063d5761063c611723565b5b148061066d57506001600281111561065857610657611723565b5b82600281111561066b5761066a611723565b5b145b6106ac576040517f08c379a00000000000000000000000000000000000000000000000000000000081526004016106a390611b7f565b60405180910390fd5b60001515600960003373ffffffffffffffffffffffffffffffffffffffff1673ffffffffffffffffffffffffffffffffffffffff16815260200190815260200160002060009054906101000a900460ff1615151461073f576040517f08c379a000000000000000000000000000000000000000000000000000000000815260040161073690611c11565b60405180910390fd5b6001600960003373ffffffffffffffffffffffffffffffffffffffff1673ffffffffffffffffffffffffffffffffffffffff16815260200190815260200160002060006101000a81548160ff02191690831515021790555060003073ffffffffffffffffffffffffffffffffffffffff1663e0c862896040518163ffffffff1660e01b81526004016020604051808303816000875af11580156107e6573d6000803e3d6000fd5b505050506040513d601f19601f8201168201806040525081019061080a9190611c46565b905060006040518060c001604052808381526020013373ffffffffffffffffffffffffffffffffffffffff16815260200134815260200185600281111561085457610853611723565b5b815260200160028081111561086c5761086b611723565b5b815260200161087a34611171565b815250905080600a60008481526020019081526020016000206000820151816000015560208201518160010160006101000a81548173ffffffffffffffffffffffffffffffffffffffff021916908373ffffffffffffffffffffffffffffffffffffffff1602179055506040820151816002015560608201518160030160006101000a81548160ff0219169083600281111561091957610918611723565b5b021790555060808201518160030160016101000a81548160ff0219169083600281111561094957610948611723565b5b021790555060a082015181600401559050508192505050919050565b600160009054906101000a900473ffffffffffffffffffffffffffffffffffffffff1673ffffffffffffffffffffffffffffffffffffffff163373ffffffffffffffffffffffffffffffffffffffff16146109f5576040517f08c379a00000000000000000000000000000000000000000000000000000000081526004016109ec90611cbf565b60405180910390fd5b60008060009054906101000a900473ffffffffffffffffffffffffffffffffffffffff169050336000806101000a81548173ffffffffffffffffffffffffffffffffffffffff021916908373ffffffffffffffffffffffffffffffffffffffff1602179055506000600160006101000a81548173ffffffffffffffffffffffffffffffffffffffff021916908373ffffffffffffffffffffffffffffffffffffffff1602179055503373ffffffffffffffffffffffffffffffffffffffff168173ffffffffffffffffffffffffffffffffffffffff167f8be0079c531659141344cd1fd0a4f28419497f9722a3daafe3b4186f6b6457e060405160405180910390a350565b60048181548110610b0a57600080fd5b906000526020600020016000915090505481565b600660009054906101000a900467ffffffffffffffff1681565b60008060009054906101000a900473ffffffffffffffffffffffffffffffffffffffff16905090565b60026020528060005260406000206000915090508060000160009054906101000a900460ff16908060000160019054906101000a900460ff16905082565b60096020528060005260406000206000915054906101000a900460ff1681565b600060606002600084815260200190815260200160002060000160019054906101000a900460ff16610c26576040517f08c379a0000000000000000000000000000000000000000000000000000000008152600401610c1d90611d2b565b60405180910390fd5b6000600260008581526020019081526020016000206040518060600160405290816000820160009054906101000a900460ff161515151581526020016000820160019054906101000a900460ff1615151515815260200160018201805480602002602001604051908101604052809291908181526020018280548015610ccb57602002820191906000526020600020905b815481526020019060010190808311610cb7575b5050505050815250509050806000015181604001519250925050915091565b6000610cf4611187565b600360009054906101000a900473ffffffffffffffffffffffffffffffffffffffff1673ffffffffffffffffffffffffffffffffffffffff16635d3b1d30600754600660009054906101000a900467ffffffffffffffff16600860049054906101000a900461ffff16600860009054906101000a900463ffffffff16600860069054906101000a900463ffffffff166040518663ffffffff1660e01b8152600401610da3959493929190611da0565b6020604051808303816000875af1158015610dc2573d6000803e3d6000fd5b505050506040513d601f19601f82011682018060405250810190610de69190611c46565b90506040518060600160405280600015158152602001600115158152602001600067ffffffffffffffff811115610e2057610e1f611507565b5b604051908082528060200260200182016040528015610e4e5781602001602082028036833780820191505090505b508152506002600083815260200190815260200160002060008201518160000160006101000a81548160ff02191690831515021790555060208201518160000160016101000a81548160ff0219169083151502179055506040820151816001019080519060200190610ec192919061143d565b509050506004819080600181540180825580915050600190039060005260206000200160009091909190915055806005819055507fcc58b13ad3eab50626c6a6300b1d139cd6ebb1688a7cced9461c2f7e762665ee81600860069054906101000a900463ffffffff16604051610f38929190611df3565b60405180910390a190565b610f4b611187565b610f5481611217565b50565b60055481565b600080600283600081518110610f7657610f75611e1c565b5b6020026020010151610f889190611e7a565b905060008103610f9757600091505b60018103610fa457600191505b816002811115610fb757610fb6611723565b5b600a600086815260200190815260200160002060030160009054906101000a900460ff166002811115610fed57610fec611723565b5b0361109557600a600085815260200190815260200160002060040154600b6000600a600088815260200190815260200160002060010160009054906101000a900473ffffffffffffffffffffffffffffffffffffffff1673ffffffffffffffffffffffffffffffffffffffff1673ffffffffffffffffffffffffffffffffffffffff168152602001908152602001600020600082825461108d9190611eda565b925050819055505b81600a600086815260200190815260200160002060030160016101000a81548160ff021916908360028111156110ce576110cd611723565b5b0217905550600060096000600a600088815260200190815260200160002060010160009054906101000a900473ffffffffffffffffffffffffffffffffffffffff1673ffffffffffffffffffffffffffffffffffffffff1673ffffffffffffffffffffffffffffffffffffffff16815260200190815260200160002060006101000a81548160ff02191690831515021790555061116b8484611343565b50505050565b60006002826111809190611f0e565b9050919050565b60008054906101000a900473ffffffffffffffffffffffffffffffffffffffff1673ffffffffffffffffffffffffffffffffffffffff163373ffffffffffffffffffffffffffffffffffffffff1614611215576040517f08c379a000000000000000000000000000000000000000000000000000000000815260040161120c90611f8b565b60405180910390fd5b565b3373ffffffffffffffffffffffffffffffffffffffff168173ffffffffffffffffffffffffffffffffffffffff1603611285576040517f08c379a000000000000000000000000000000000000000000000000000000000815260040161127c90611ff7565b60405180910390fd5b80600160006101000a81548173ffffffffffffffffffffffffffffffffffffffff021916908373ffffffffffffffffffffffffffffffffffffffff1602179055508073ffffffffffffffffffffffffffffffffffffffff1660008054906101000a900473ffffffffffffffffffffffffffffffffffffffff1673ffffffffffffffffffffffffffffffffffffffff167fed8889f560326eb138920d842192f0eb3dd22b4f139c87a2c57538e05bae127860405160405180910390a350565b6002600083815260200190815260200160002060000160019054906101000a900460ff166113a6576040517f08c379a000000000000000000000000000000000000000000000000000000000815260040161139d90611d2b565b60405180910390fd5b60016002600084815260200190815260200160002060000160006101000a81548160ff021916908315150217905550806002600084815260200190815260200160002060010190805190602001906113ff92919061143d565b507ffe2e2d779dba245964d4e3ef9b994be63856fd568bf7d3ca9e224755cb1bd54d8282604051611431929190612017565b60405180910390a15050565b828054828255906000526020600020908101928215611479579160200282015b8281111561147857825182559160200191906001019061145d565b5b509050611486919061148a565b5090565b5b808211156114a357600081600090555060010161148b565b5090565b6000604051905090565b600080fd5b600080fd5b6000819050919050565b6114ce816114bb565b81146114d957600080fd5b50565b6000813590506114eb816114c5565b92915050565b600080fd5b6000601f19601f8301169050919050565b7f4e487b7100000000000000000000000000000000000000000000000000000000600052604160045260246000fd5b61153f826114f6565b810181811067ffffffffffffffff8211171561155e5761155d611507565b5b80604052505050565b60006115716114a7565b905061157d8282611536565b919050565b600067ffffffffffffffff82111561159d5761159c611507565b5b602082029050602081019050919050565b600080fd5b60006115c66115c184611582565b611567565b905080838252602082019050602084028301858111156115e9576115e86115ae565b5b835b8181101561161257806115fe88826114dc565b8452602084019350506020810190506115eb565b5050509392505050565b600082601f830112611631576116306114f1565b5b81356116418482602086016115b3565b91505092915050565b60008060408385031215611661576116606114b1565b5b600061166f858286016114dc565b925050602083013567ffffffffffffffff8111156116905761168f6114b6565b5b61169c8582860161161c565b9150509250929050565b6000602082840312156116bc576116bb6114b1565b5b60006116ca848285016114dc565b91505092915050565b6116dc816114bb565b82525050565b600073ffffffffffffffffffffffffffffffffffffffff82169050919050565b600061170d826116e2565b9050919050565b61171d81611702565b82525050565b7f4e487b7100000000000000000000000000000000000000000000000000000000600052602160045260246000fd5b6003811061176357611762611723565b5b50565b600081905061177482611752565b919050565b600061178482611766565b9050919050565b61179481611779565b82525050565b600060c0820190506117af60008301896116d3565b6117bc6020830188611714565b6117c960408301876116d3565b6117d6606083018661178b565b6117e3608083018561178b565b6117f060a08301846116d3565b979650505050505050565b61180481611702565b811461180f57600080fd5b50565b600081359050611821816117fb565b92915050565b60006020828403121561183d5761183c6114b1565b5b600061184b84828501611812565b91505092915050565b600060208201905061186960008301846116d3565b92915050565b6003811061187c57600080fd5b50565b60008135905061188e8161186f565b92915050565b6000602082840312156118aa576118a96114b1565b5b60006118b88482850161187f565b91505092915050565b600067ffffffffffffffff82169050919050565b6118de816118c1565b82525050565b60006020820190506118f960008301846118d5565b92915050565b60006020820190506119146000830184611714565b92915050565b60008115159050919050565b61192f8161191a565b82525050565b600060408201905061194a6000830185611926565b6119576020830184611926565b9392505050565b60006020820190506119736000830184611926565b92915050565b600081519050919050565b600082825260208201905092915050565b6000819050602082019050919050565b6119ae816114bb565b82525050565b60006119c083836119a5565b60208301905092915050565b6000602082019050919050565b60006119e482611979565b6119ee8185611984565b93506119f983611995565b8060005b83811015611a2a578151611a1188826119b4565b9750611a1c836119cc565b9250506001810190506119fd565b5085935050505092915050565b6000604082019050611a4c6000830185611926565b8181036020830152611a5e81846119d9565b90509392505050565b6000604082019050611a7c6000830185611714565b611a896020830184611714565b9392505050565b600082825260208201905092915050565b7f5468652062616e6b2063616e6e6f742066756c66696c6c20746865207769746860008201527f647261772e000000000000000000000000000000000000000000000000000000602082015250565b6000611afd602583611a90565b9150611b0882611aa1565b604082019050919050565b60006020820190508181036000830152611b2c81611af0565b9050919050565b7f54686520626574206d7573742062652076616c69642e00000000000000000000600082015250565b6000611b69601683611a90565b9150611b7482611b33565b602082019050919050565b60006020820190508181036000830152611b9881611b5c565b9050919050565b7f5468657265206973206120666c697020616c726561647920696e2070726f677260008201527f6573732e00000000000000000000000000000000000000000000000000000000602082015250565b6000611bfb602483611a90565b9150611c0682611b9f565b604082019050919050565b60006020820190508181036000830152611c2a81611bee565b9050919050565b600081519050611c40816114c5565b92915050565b600060208284031215611c5c57611c5b6114b1565b5b6000611c6a84828501611c31565b91505092915050565b7f4d7573742062652070726f706f736564206f776e657200000000000000000000600082015250565b6000611ca9601683611a90565b9150611cb482611c73565b602082019050919050565b60006020820190508181036000830152611cd881611c9c565b9050919050565b7f72657175657374206e6f7420666f756e64000000000000000000000000000000600082015250565b6000611d15601183611a90565b9150611d2082611cdf565b602082019050919050565b60006020820190508181036000830152611d4481611d08565b9050919050565b6000819050919050565b611d5e81611d4b565b82525050565b600061ffff82169050919050565b611d7b81611d64565b82525050565b600063ffffffff82169050919050565b611d9a81611d81565b82525050565b600060a082019050611db56000830188611d55565b611dc260208301876118d5565b611dcf6040830186611d72565b611ddc6060830185611d91565b611de96080830184611d91565b9695505050505050565b6000604082019050611e0860008301856116d3565b611e156020830184611d91565b9392505050565b7f4e487b7100000000000000000000000000000000000000000000000000000000600052603260045260246000fd5b7f4e487b7100000000000000000000000000000000000000000000000000000000600052601260045260246000fd5b6000611e85826114bb565b9150611e90836114bb565b925082611ea057611e9f611e4b565b5b828206905092915050565b7f4e487b7100000000000000000000000000000000000000000000000000000000600052601160045260246000fd5b6000611ee5826114bb565b9150611ef0836114bb565b9250828201905080821115611f0857611f07611eab565b5b92915050565b6000611f19826114bb565b9150611f24836114bb565b925082611f3457611f33611e4b565b5b828204905092915050565b7f4f6e6c792063616c6c61626c65206279206f776e657200000000000000000000600082015250565b6000611f75601683611a90565b9150611f8082611f3f565b602082019050919050565b60006020820190508181036000830152611fa481611f68565b9050919050565b7f43616e6e6f74207472616e7366657220746f2073656c66000000000000000000600082015250565b6000611fe1601783611a90565b9150611fec82611fab565b602082019050919050565b6000602082019050818103600083015261201081611fd4565b9050919050565b600060408201905061202c60008301856116d3565b818103602083015261203e81846119d9565b9050939250505056fea26469706673582212206ae097d940b10f9353ea16638b29b6fa0464710b8365d6b0acd8732e7e4932d264736f6c63430008140033",
  "linkReferences": {},
  "deployedLinkReferences": {}
}